{
  "contractName": "FlightSuretyData",
  "abi": [
    {
      "inputs": [
        {
          "internalType": "address",
          "name": "airlineAddress",
          "type": "address"
        }
      ],
      "payable": false,
      "stateMutability": "nonpayable",
      "type": "constructor"
    },
    {
      "anonymous": false,
      "inputs": [
        {
          "indexed": false,
          "internalType": "address",
          "name": "airline",
          "type": "address"
        },
        {
          "indexed": false,
          "internalType": "bool",
          "name": "exist",
          "type": "bool"
        }
      ],
      "name": "AirlineExist",
      "type": "event"
    },
    {
      "anonymous": false,
      "inputs": [
        {
          "indexed": false,
          "internalType": "address",
          "name": "airlineAddress",
          "type": "address"
        },
        {
          "indexed": false,
          "internalType": "bool",
          "name": "exist",
          "type": "bool"
        },
        {
          "indexed": false,
          "internalType": "bool",
          "name": "registered",
          "type": "bool"
        },
        {
          "indexed": false,
          "internalType": "bool",
          "name": "funded",
          "type": "bool"
        },
        {
          "indexed": false,
          "internalType": "uint256",
          "name": "fundedCount",
          "type": "uint256"
        }
      ],
      "name": "AirlineFunded",
      "type": "event"
    },
    {
      "anonymous": false,
      "inputs": [
        {
          "indexed": false,
          "internalType": "address",
          "name": "airline",
          "type": "address"
        },
        {
          "indexed": false,
          "internalType": "bool",
          "name": "exist",
          "type": "bool"
        },
        {
          "indexed": false,
          "internalType": "bool",
          "name": "registered",
          "type": "bool"
        }
      ],
      "name": "AirlineRegistered",
      "type": "event"
    },
    {
      "anonymous": false,
      "inputs": [
        {
          "indexed": false,
          "internalType": "address",
          "name": "caller",
          "type": "address"
        }
      ],
      "name": "AuthorizeCaller",
      "type": "event"
    },
    {
      "anonymous": false,
      "inputs": [
        {
          "indexed": false,
          "internalType": "bytes32",
          "name": "flightKey",
          "type": "bytes32"
        }
      ],
      "name": "InsuranceBought",
      "type": "event"
    },
    {
      "payable": true,
      "stateMutability": "payable",
      "type": "fallback"
    },
    {
      "constant": true,
      "inputs": [
        {
          "internalType": "address",
          "name": "",
          "type": "address"
        }
      ],
      "name": "authorizedCallers",
      "outputs": [
        {
          "internalType": "bool",
          "name": "",
          "type": "bool"
        }
      ],
      "payable": false,
      "stateMutability": "view",
      "type": "function"
    },
    {
      "constant": true,
      "inputs": [],
      "name": "isOperational",
      "outputs": [
        {
          "internalType": "bool",
          "name": "",
          "type": "bool"
        }
      ],
      "payable": false,
      "stateMutability": "view",
      "type": "function"
    },
    {
      "constant": false,
      "inputs": [
        {
          "internalType": "bool",
          "name": "mode",
          "type": "bool"
        }
      ],
      "name": "setOperatingStatus",
      "outputs": [],
      "payable": false,
      "stateMutability": "nonpayable",
      "type": "function"
    },
    {
      "constant": false,
      "inputs": [
        {
          "internalType": "address",
          "name": "contractAddress",
          "type": "address"
        }
      ],
      "name": "authorizeCaller",
      "outputs": [],
      "payable": false,
      "stateMutability": "nonpayable",
      "type": "function"
    },
    {
      "constant": true,
      "inputs": [
        {
          "internalType": "address",
          "name": "contractAddress",
          "type": "address"
        }
      ],
      "name": "callerAuthorized",
      "outputs": [
        {
          "internalType": "bool",
          "name": "",
          "type": "bool"
        }
      ],
      "payable": false,
      "stateMutability": "view",
      "type": "function"
    },
    {
      "constant": true,
      "inputs": [],
      "name": "getExistAirlinesCount",
      "outputs": [
        {
          "internalType": "uint256",
          "name": "",
          "type": "uint256"
        }
      ],
      "payable": false,
      "stateMutability": "view",
      "type": "function"
    },
    {
      "constant": true,
      "inputs": [],
      "name": "getRegisteredAirlinesCount",
      "outputs": [
        {
          "internalType": "uint256",
          "name": "",
          "type": "uint256"
        }
      ],
      "payable": false,
      "stateMutability": "view",
      "type": "function"
    },
    {
      "constant": true,
      "inputs": [],
      "name": "getFundedAirlinesCount",
      "outputs": [
        {
          "internalType": "uint256",
          "name": "",
          "type": "uint256"
        }
      ],
      "payable": false,
      "stateMutability": "view",
      "type": "function"
    },
    {
      "constant": true,
      "inputs": [
        {
          "internalType": "address",
          "name": "airlineAddress",
          "type": "address"
        }
      ],
      "name": "getAirlineVotesCount",
      "outputs": [
        {
          "internalType": "uint256",
          "name": "",
          "type": "uint256"
        }
      ],
      "payable": false,
      "stateMutability": "view",
      "type": "function"
    },
    {
      "constant": true,
      "inputs": [
        {
          "internalType": "address",
          "name": "airlineAddress",
          "type": "address"
        }
      ],
      "name": "airlineExists",
      "outputs": [
        {
          "internalType": "bool",
          "name": "",
          "type": "bool"
        }
      ],
      "payable": false,
      "stateMutability": "view",
      "type": "function"
    },
    {
      "constant": true,
      "inputs": [
        {
          "internalType": "address",
          "name": "airlineAddress",
          "type": "address"
        }
      ],
      "name": "airlineRegistered",
      "outputs": [
        {
          "internalType": "bool",
          "name": "",
          "type": "bool"
        }
      ],
      "payable": false,
      "stateMutability": "view",
      "type": "function"
    },
    {
      "constant": true,
      "inputs": [
        {
          "internalType": "address",
          "name": "airlineAddress",
          "type": "address"
        }
      ],
      "name": "airlineFunded",
      "outputs": [
        {
          "internalType": "bool",
          "name": "",
          "type": "bool"
        }
      ],
      "payable": false,
      "stateMutability": "view",
      "type": "function"
    },
    {
      "constant": true,
      "inputs": [
        {
          "internalType": "address",
          "name": "buyer",
          "type": "address"
        },
        {
          "internalType": "address",
          "name": "airlineAddress",
          "type": "address"
        },
        {
          "internalType": "string",
          "name": "flightName",
          "type": "string"
        },
        {
          "internalType": "uint256",
          "name": "departure",
          "type": "uint256"
        }
      ],
      "name": "getInsurance",
      "outputs": [
        {
          "internalType": "uint256",
          "name": "value",
          "type": "uint256"
        },
        {
          "internalType": "enum FlightSuretyData.InsuranceState",
          "name": "state",
          "type": "uint8"
        }
      ],
      "payable": false,
      "stateMutability": "view",
      "type": "function"
    },
    {
      "constant": false,
      "inputs": [
        {
          "internalType": "address",
          "name": "airlineAddress",
          "type": "address"
        },
        {
          "internalType": "bool",
          "name": "registered",
          "type": "bool"
        }
      ],
      "name": "registerAirline",
      "outputs": [],
      "payable": false,
      "stateMutability": "nonpayable",
      "type": "function"
    },
    {
      "constant": false,
      "inputs": [
        {
          "internalType": "address",
          "name": "airlineAddress",
          "type": "address"
        }
      ],
      "name": "setAirlineRegistered",
      "outputs": [],
      "payable": false,
      "stateMutability": "nonpayable",
      "type": "function"
    },
    {
      "constant": true,
      "inputs": [],
      "name": "getMinimumRequiredVotingCount",
      "outputs": [
        {
          "internalType": "uint256",
          "name": "",
          "type": "uint256"
        }
      ],
      "payable": false,
      "stateMutability": "view",
      "type": "function"
    },
    {
      "constant": false,
      "inputs": [
        {
          "internalType": "address",
          "name": "votingAirlineAddress",
          "type": "address"
        },
        {
          "internalType": "address",
          "name": "airlineAddress",
          "type": "address"
        }
      ],
      "name": "voteForAirline",
      "outputs": [],
      "payable": false,
      "stateMutability": "nonpayable",
      "type": "function"
    },
    {
      "constant": false,
      "inputs": [
        {
          "internalType": "address",
          "name": "airlineAddress",
          "type": "address"
        },
        {
          "internalType": "bytes32",
          "name": "flightKey",
          "type": "bytes32"
        }
      ],
      "name": "registerFlightKey",
      "outputs": [],
      "payable": false,
      "stateMutability": "nonpayable",
      "type": "function"
    },
    {
      "constant": false,
      "inputs": [
        {
          "internalType": "address",
          "name": "buyer",
          "type": "address"
        },
        {
          "internalType": "address",
          "name": "airlineAddress",
          "type": "address"
        },
        {
          "internalType": "string",
          "name": "flightName",
          "type": "string"
        },
        {
          "internalType": "uint256",
          "name": "departure",
          "type": "uint256"
        }
      ],
      "name": "buyInsurance",
      "outputs": [],
      "payable": true,
      "stateMutability": "payable",
      "type": "function"
    },
    {
      "constant": false,
      "inputs": [
        {
          "internalType": "bytes32",
          "name": "flightKey",
          "type": "bytes32"
        },
        {
          "internalType": "uint8",
          "name": "creditRate",
          "type": "uint8"
        }
      ],
      "name": "creditInsurees",
      "outputs": [],
      "payable": false,
      "stateMutability": "nonpayable",
      "type": "function"
    },
    {
      "constant": false,
      "inputs": [
        {
          "internalType": "bytes32",
          "name": "flightKey",
          "type": "bytes32"
        }
      ],
      "name": "pay",
      "outputs": [],
      "payable": true,
      "stateMutability": "payable",
      "type": "function"
    },
    {
      "constant": false,
      "inputs": [
        {
          "internalType": "address",
          "name": "airlineAddress",
          "type": "address"
        }
      ],
      "name": "fund",
      "outputs": [],
      "payable": true,
      "stateMutability": "payable",
      "type": "function"
    }
  ],
  "bytecode": "0x60806040526001600060146101000a81548160ff0219169083151502179055506000600355600060045560006005553480156200003b57600080fd5b5060405162002fc238038062002fc2833981810160405260208110156200006157600080fd5b8101908080519060200190929190505050336000806101000a81548173ffffffffffffffffffffffffffffffffffffffff021916908373ffffffffffffffffffffffffffffffffffffffff1602179055506040518060c001604052806001151581526020016001151581526020016000151581526020016000604051908082528060200260200182016040528015620001095781602001602082028038833980820191505090505b5081526020016040518060200160405280600081525081526020016000815250600260008373ffffffffffffffffffffffffffffffffffffffff1673ffffffffffffffffffffffffffffffffffffffff16815260200190815260200160002060008201518160000160006101000a81548160ff02191690831515021790555060208201518160000160016101000a81548160ff02191690831515021790555060408201518160000160026101000a81548160ff0219169083151502179055506060820151816001019080519060200190620001e6929190620004b6565b5060808201518160020160008201518160000155505060a082015181600401559050506200022660016003546200042d60201b620026161790919060201c565b6003819055506200024960016004546200042d60201b620026161790919060201c565b6004819055507f4be7110ee0983b021bd112fa52df487b345848a71a9c9b1a377afc91061791e881600260008473ffffffffffffffffffffffffffffffffffffffff1673ffffffffffffffffffffffffffffffffffffffff16815260200190815260200160002060000160009054906101000a900460ff16604051808373ffffffffffffffffffffffffffffffffffffffff1673ffffffffffffffffffffffffffffffffffffffff168152602001821515151581526020019250505060405180910390a17f0a604b7c82f2e6152bdfa7fb694d8153a3e256ac4cad1ccc9f38ce60a5c1e7f381600260008473ffffffffffffffffffffffffffffffffffffffff1673ffffffffffffffffffffffffffffffffffffffff16815260200190815260200160002060000160009054906101000a900460ff16600260008573ffffffffffffffffffffffffffffffffffffffff1673ffffffffffffffffffffffffffffffffffffffff16815260200190815260200160002060000160019054906101000a900460ff16604051808473ffffffffffffffffffffffffffffffffffffffff1673ffffffffffffffffffffffffffffffffffffffff1681526020018315151515815260200182151515158152602001935050505060405180910390a15062000530565b600080828401905083811015620004ac576040517f08c379a000000000000000000000000000000000000000000000000000000000815260040180806020018281038252601b8152602001807f536166654d6174683a206164646974696f6e206f766572666c6f77000000000081525060200191505060405180910390fd5b8091505092915050565b828054828255906000526020600020908101928215620004f5579160200282015b82811115620004f4578251825591602001919060010190620004d7565b5b50905062000504919062000508565b5090565b6200052d91905b80821115620005295760008160009055506001016200050f565b5090565b90565b612a8280620005406000396000f3fe6080604052600436106101355760003560e01c806365d35a2c116100ab578063cd905dff1161006f578063cd905dff1461086c578063dfaa248b1461089b578063e15d643f146108c6578063f77890ea146108f1578063f839cdb01461091c578063fe8286781461094757610135565b806365d35a2c1461069e5780636a271d1f146107075780638609cad11461077057806395386ae21461079e578063cc0e50d3146107fb57610135565b8063373b0a2d116100fd578063373b0a2d1461038057806350cf1667146103d157806352ea533b1461050c578063536fff6c146105755780635c3487e6146105de5780635dda8d0b1461064357610135565b80630b5041eb14610140578063110466ed1461024557806323024408146102825780632c388d5d146102c65780632ef49f3014610317575b61013e3361098f565b005b6102436004803603608081101561015657600080fd5b81019080803573ffffffffffffffffffffffffffffffffffffffff169060200190929190803573ffffffffffffffffffffffffffffffffffffffff169060200190929190803590602001906401000000008111156101b357600080fd5b8201836020820111156101c557600080fd5b803590602001918460018302840111640100000000831117156101e757600080fd5b91908080601f016020809104026020016040519081016040528093929190818152602001838380828437600081840152601f19601f82011690508083019250505050505050919291929080359060200190929190505050610d72565b005b34801561025157600080fd5b506102806004803603602081101561026857600080fd5b81019080803515159060200190929190505050610fd0565b005b6102c46004803603602081101561029857600080fd5b81019080803573ffffffffffffffffffffffffffffffffffffffff16906020019092919050505061098f565b005b3480156102d257600080fd5b50610315600480360360208110156102e957600080fd5b81019080803573ffffffffffffffffffffffffffffffffffffffff1690602001909291905050506110af565b005b34801561032357600080fd5b506103666004803603602081101561033a57600080fd5b81019080803573ffffffffffffffffffffffffffffffffffffffff169060200190929190505050611359565b604051808215151515815260200191505060405180910390f35b34801561038c57600080fd5b506103cf600480360360208110156103a357600080fd5b81019080803573ffffffffffffffffffffffffffffffffffffffff16906020019092919050505061140e565b005b3480156103dd57600080fd5b506104e1600480360360808110156103f457600080fd5b81019080803573ffffffffffffffffffffffffffffffffffffffff169060200190929190803573ffffffffffffffffffffffffffffffffffffffff1690602001909291908035906020019064010000000081111561045157600080fd5b82018360208201111561046357600080fd5b8035906020019184600183028401116401000000008311171561048557600080fd5b91908080601f016020809104026020016040519081016040528093929190818152602001838380828437600081840152601f19601f82011690508083019250505050505050919291929080359060200190929190505050611793565b604051808381526020018260048111156104f757fe5b60ff1681526020019250505060405180910390f35b34801561051857600080fd5b5061055b6004803603602081101561052f57600080fd5b81019080803573ffffffffffffffffffffffffffffffffffffffff169060200190929190505050611828565b604051808215151515815260200191505060405180910390f35b34801561058157600080fd5b506105c46004803603602081101561059857600080fd5b81019080803573ffffffffffffffffffffffffffffffffffffffff16906020019092919050505061187e565b604051808215151515815260200191505060405180910390f35b3480156105ea57600080fd5b5061062d6004803603602081101561060157600080fd5b81019080803573ffffffffffffffffffffffffffffffffffffffff16906020019092919050505061189e565b6040518082815260200191505060405180910390f35b34801561064f57600080fd5b5061069c6004803603604081101561066657600080fd5b81019080803573ffffffffffffffffffffffffffffffffffffffff169060200190929190803590602001909291905050506118ed565b005b3480156106aa57600080fd5b506106ed600480360360208110156106c157600080fd5b81019080803573ffffffffffffffffffffffffffffffffffffffff169060200190929190505050611a25565b604051808215151515815260200191505060405180910390f35b34801561071357600080fd5b506107566004803603602081101561072a57600080fd5b81019080803573ffffffffffffffffffffffffffffffffffffffff169060200190929190505050611a7e565b604051808215151515815260200191505060405180910390f35b61079c6004803603602081101561078657600080fd5b8101908080359060200190929190505050611ad7565b005b3480156107aa57600080fd5b506107f9600480360360408110156107c157600080fd5b81019080803573ffffffffffffffffffffffffffffffffffffffff169060200190929190803515159060200190929190505050611cf9565b005b34801561080757600080fd5b5061086a6004803603604081101561081e57600080fd5b81019080803573ffffffffffffffffffffffffffffffffffffffff169060200190929190803573ffffffffffffffffffffffffffffffffffffffff1690602001909291905050506120d7565b005b34801561087857600080fd5b5061088161234f565b604051808215151515815260200191505060405180910390f35b3480156108a757600080fd5b506108b0612365565b6040518082815260200191505060405180910390f35b3480156108d257600080fd5b506108db61236f565b6040518082815260200191505060405180910390f35b3480156108fd57600080fd5b5061090661238c565b6040518082815260200191505060405180910390f35b34801561092857600080fd5b50610931612396565b6040518082815260200191505060405180910390f35b34801561095357600080fd5b5061098d6004803603604081101561096a57600080fd5b8101908080359060200190929190803560ff1690602001909291905050506123a0565b005b600060149054906101000a900460ff166109f4576040517f08c379a0000000000000000000000000000000000000000000000000000000008152600401808060200182810382526025815260200180612a296025913960400191505060405180910390fd5b80600260008273ffffffffffffffffffffffffffffffffffffffff1673ffffffffffffffffffffffffffffffffffffffff16815260200190815260200160002060000160009054906101000a900460ff16610ab7576040517f08c379a00000000000000000000000000000000000000000000000000000000081526004018080602001828103825260168152602001807f4169726c696e6520646f6573206e6f742065786973740000000000000000000081525060200191505060405180910390fd5b600260008273ffffffffffffffffffffffffffffffffffffffff1673ffffffffffffffffffffffffffffffffffffffff16815260200190815260200160002060000160019054906101000a900460ff16610b79576040517f08c379a00000000000000000000000000000000000000000000000000000000081526004018080602001828103825260198152602001807f4169726c696e65206973206e6f7420726567697374657265640000000000000081525060200191505060405180910390fd5b6001600260008473ffffffffffffffffffffffffffffffffffffffff1673ffffffffffffffffffffffffffffffffffffffff16815260200190815260200160002060000160026101000a81548160ff021916908315150217905550610bea600160055461261690919063ffffffff16565b6005819055507f953ad823e45558aa0888ce45408ad3f585103cf94532de16a5f65655c41b3f6782600260008573ffffffffffffffffffffffffffffffffffffffff1673ffffffffffffffffffffffffffffffffffffffff16815260200190815260200160002060000160009054906101000a900460ff16600260008673ffffffffffffffffffffffffffffffffffffffff1673ffffffffffffffffffffffffffffffffffffffff16815260200190815260200160002060000160019054906101000a900460ff16600260008773ffffffffffffffffffffffffffffffffffffffff1673ffffffffffffffffffffffffffffffffffffffff16815260200190815260200160002060000160029054906101000a900460ff16600554604051808673ffffffffffffffffffffffffffffffffffffffff1673ffffffffffffffffffffffffffffffffffffffff1681526020018515151515815260200184151515158152602001831515151581526020018281526020019550505050505060405180910390a15050565b6000610d7f84848461269e565b905060006006600083815260200190815260200160002090506040518060c001604052808773ffffffffffffffffffffffffffffffffffffffff1681526020013481526020018673ffffffffffffffffffffffffffffffffffffffff16815260200185815260200184815260200160026004811115610dfa57fe5b8152508160000160008873ffffffffffffffffffffffffffffffffffffffff1673ffffffffffffffffffffffffffffffffffffffff16815260200190815260200160002060008201518160000160006101000a81548173ffffffffffffffffffffffffffffffffffffffff021916908373ffffffffffffffffffffffffffffffffffffffff1602179055506020820151816001015560408201518160020160006101000a81548173ffffffffffffffffffffffffffffffffffffffff021916908373ffffffffffffffffffffffffffffffffffffffff1602179055506060820151816003019080519060200190610ef29291906128f0565b506080820151816004015560a08201518160050160006101000a81548160ff02191690836004811115610f2157fe5b0217905550905050806001018690806001815401808255809150509060018203906000526020600020016000909192909190916101000a81548173ffffffffffffffffffffffffffffffffffffffff021916908373ffffffffffffffffffffffffffffffffffffffff160217905550507fbbf20781d31adbc294d0c8a04d4b1cb09a22f268bee044026c2fc95cf0be85aa826040518082815260200191505060405180910390a1505050505050565b6000809054906101000a900473ffffffffffffffffffffffffffffffffffffffff1673ffffffffffffffffffffffffffffffffffffffff163373ffffffffffffffffffffffffffffffffffffffff1614611092576040517f08c379a000000000000000000000000000000000000000000000000000000000815260040180806020018281038252601c8152602001807f43616c6c6572206973206e6f7420636f6e7472616374206f776e65720000000081525060200191505060405180910390fd5b80600060146101000a81548160ff02191690831515021790555050565b6000809054906101000a900473ffffffffffffffffffffffffffffffffffffffff1673ffffffffffffffffffffffffffffffffffffffff163373ffffffffffffffffffffffffffffffffffffffff1614611171576040517f08c379a000000000000000000000000000000000000000000000000000000000815260040180806020018281038252601c8152602001807f43616c6c6572206973206e6f7420636f6e7472616374206f776e65720000000081525060200191505060405180910390fd5b600060149054906101000a900460ff166111d6576040517f08c379a0000000000000000000000000000000000000000000000000000000008152600401808060200182810382526025815260200180612a296025913960400191505060405180910390fd5b60001515600160008373ffffffffffffffffffffffffffffffffffffffff1673ffffffffffffffffffffffffffffffffffffffff16815260200190815260200160002060009054906101000a900460ff1615151461129c576040517f08c379a00000000000000000000000000000000000000000000000000000000081526004018080602001828103825260128152602001807f616c726561647920617574686f72697a6564000000000000000000000000000081525060200191505060405180910390fd5b60018060008373ffffffffffffffffffffffffffffffffffffffff1673ffffffffffffffffffffffffffffffffffffffff16815260200190815260200160002060006101000a81548160ff0219169083151502179055507fc4bcfb88e75b36f7b946fb0affb57e1f03fed8d0d5ddbe56b631d09c1188b28381604051808273ffffffffffffffffffffffffffffffffffffffff1673ffffffffffffffffffffffffffffffffffffffff16815260200191505060405180910390a150565b6000600260008373ffffffffffffffffffffffffffffffffffffffff1673ffffffffffffffffffffffffffffffffffffffff16815260200190815260200160002060000160009054906101000a900460ff166113b6576000611407565b600260008373ffffffffffffffffffffffffffffffffffffffff1673ffffffffffffffffffffffffffffffffffffffff16815260200190815260200160002060000160019054906101000a900460ff165b9050919050565b600060149054906101000a900460ff16611473576040517f08c379a0000000000000000000000000000000000000000000000000000000008152600401808060200182810382526025815260200180612a296025913960400191505060405180910390fd5b80600260008273ffffffffffffffffffffffffffffffffffffffff1673ffffffffffffffffffffffffffffffffffffffff16815260200190815260200160002060000160009054906101000a900460ff16611536576040517f08c379a00000000000000000000000000000000000000000000000000000000081526004018080602001828103825260168152602001807f4169726c696e6520646f6573206e6f742065786973740000000000000000000081525060200191505060405180910390fd5b60001515600260008473ffffffffffffffffffffffffffffffffffffffff1673ffffffffffffffffffffffffffffffffffffffff16815260200190815260200160002060000160019054906101000a900460ff161515146115ff576040517f08c379a000000000000000000000000000000000000000000000000000000000815260040180806020018281038252601d8152602001807f4169726c696e6520697320616c7265616479207265676973746572656400000081525060200191505060405180910390fd5b6001600260008473ffffffffffffffffffffffffffffffffffffffff1673ffffffffffffffffffffffffffffffffffffffff16815260200190815260200160002060000160016101000a81548160ff021916908315150217905550611670600160045461261690919063ffffffff16565b6004819055507f0a604b7c82f2e6152bdfa7fb694d8153a3e256ac4cad1ccc9f38ce60a5c1e7f382600260008573ffffffffffffffffffffffffffffffffffffffff1673ffffffffffffffffffffffffffffffffffffffff16815260200190815260200160002060000160009054906101000a900460ff16600260008673ffffffffffffffffffffffffffffffffffffffff1673ffffffffffffffffffffffffffffffffffffffff16815260200190815260200160002060000160019054906101000a900460ff16604051808473ffffffffffffffffffffffffffffffffffffffff1673ffffffffffffffffffffffffffffffffffffffff1681526020018315151515815260200182151515158152602001935050505060405180910390a15050565b60008060006117a386868661269e565b9050600060066000838152602001908152602001600020905060008160000160008a73ffffffffffffffffffffffffffffffffffffffff1673ffffffffffffffffffffffffffffffffffffffff168152602001908152602001600020905080600101548160050160009054906101000a900460ff169450945050505094509492505050565b6000600160008373ffffffffffffffffffffffffffffffffffffffff1673ffffffffffffffffffffffffffffffffffffffff16815260200190815260200160002060009054906101000a900460ff169050919050565b60016020528060005260406000206000915054906101000a900460ff1681565b6000600260008373ffffffffffffffffffffffffffffffffffffffff1673ffffffffffffffffffffffffffffffffffffffff168152602001908152602001600020600201600001549050919050565b3360011515600160008373ffffffffffffffffffffffffffffffffffffffff1673ffffffffffffffffffffffffffffffffffffffff16815260200190815260200160002060009054906101000a900460ff161515146119b4576040517f08c379a00000000000000000000000000000000000000000000000000000000081526004018080602001828103825260158152602001807f4e6f7420417574686f72697a65642043616c6c6572000000000000000000000081525060200191505060405180910390fd5b600260008473ffffffffffffffffffffffffffffffffffffffff1673ffffffffffffffffffffffffffffffffffffffff168152602001908152602001600020600101829080600181540180825580915050906001820390600052602060002001600090919290919091505550505050565b6000600260008373ffffffffffffffffffffffffffffffffffffffff1673ffffffffffffffffffffffffffffffffffffffff16815260200190815260200160002060000160009054906101000a900460ff169050919050565b6000600260008373ffffffffffffffffffffffffffffffffffffffff1673ffffffffffffffffffffffffffffffffffffffff16815260200190815260200160002060000160029054906101000a900460ff169050919050565b600060066000838152602001908152602001600020905060008160000160003373ffffffffffffffffffffffffffffffffffffffff1673ffffffffffffffffffffffffffffffffffffffff168152602001908152602001600020905060036004811115611b4057fe5b8160050160009054906101000a900460ff166004811115611b5d57fe5b14611bd0576040517f08c379a00000000000000000000000000000000000000000000000000000000081526004018080602001828103825260168152602001807f496e737572616e6365206973206e6f742076616c69640000000000000000000081525060200191505060405180910390fd5b80600101544711611c49576040517f08c379a000000000000000000000000000000000000000000000000000000000815260040180806020018281038252600f8152602001807f54727920616761696e206c61746572000000000000000000000000000000000081525060200191505060405180910390fd5b6000816001015490506000826001018190555060048260050160006101000a81548160ff02191690836004811115611c7d57fe5b021790555060008260000160009054906101000a900473ffffffffffffffffffffffffffffffffffffffff1690508073ffffffffffffffffffffffffffffffffffffffff166108fc839081150290604051600060405180830381858888f19350505050158015611cf1573d6000803e3d6000fd5b505050505050565b600060149054906101000a900460ff16611d5e576040517f08c379a0000000000000000000000000000000000000000000000000000000008152600401808060200182810382526025815260200180612a296025913960400191505060405180910390fd5b6040518060c0016040528060011515815260200182151581526020016000151581526020016000604051908082528060200260200182016040528015611db35781602001602082028038833980820191505090505b5081526020016040518060200160405280600081525081526020016000815250600260008473ffffffffffffffffffffffffffffffffffffffff1673ffffffffffffffffffffffffffffffffffffffff16815260200190815260200160002060008201518160000160006101000a81548160ff02191690831515021790555060208201518160000160016101000a81548160ff02191690831515021790555060408201518160000160026101000a81548160ff0219169083151502179055506060820151816001019080519060200190611e8e929190612970565b5060808201518160020160008201518160000155505060a08201518160040155905050611ec7600160035461261690919063ffffffff16565b60038190555060011515811515141561201457611ef0600160045461261690919063ffffffff16565b6004819055507f0a604b7c82f2e6152bdfa7fb694d8153a3e256ac4cad1ccc9f38ce60a5c1e7f382600260008573ffffffffffffffffffffffffffffffffffffffff1673ffffffffffffffffffffffffffffffffffffffff16815260200190815260200160002060000160009054906101000a900460ff16600260008673ffffffffffffffffffffffffffffffffffffffff1673ffffffffffffffffffffffffffffffffffffffff16815260200190815260200160002060000160019054906101000a900460ff16604051808473ffffffffffffffffffffffffffffffffffffffff1673ffffffffffffffffffffffffffffffffffffffff1681526020018315151515815260200182151515158152602001935050505060405180910390a16120d3565b7f4be7110ee0983b021bd112fa52df487b345848a71a9c9b1a377afc91061791e882600260008573ffffffffffffffffffffffffffffffffffffffff1673ffffffffffffffffffffffffffffffffffffffff16815260200190815260200160002060000160009054906101000a900460ff16604051808373ffffffffffffffffffffffffffffffffffffffff1673ffffffffffffffffffffffffffffffffffffffff168152602001821515151581526020019250505060405180910390a15b5050565b600060149054906101000a900460ff1661213c576040517f08c379a0000000000000000000000000000000000000000000000000000000008152600401808060200182810382526025815260200180612a296025913960400191505060405180910390fd5b60001515600260008373ffffffffffffffffffffffffffffffffffffffff1673ffffffffffffffffffffffffffffffffffffffff16815260200190815260200160002060020160010160008473ffffffffffffffffffffffffffffffffffffffff1673ffffffffffffffffffffffffffffffffffffffff16815260200190815260200160002060009054906101000a900460ff16151514612245576040517f08c379a00000000000000000000000000000000000000000000000000000000081526004018080602001828103825260158152602001807f4169726c696e6520616c726561647920766f746564000000000000000000000081525060200191505060405180910390fd5b6001600260008373ffffffffffffffffffffffffffffffffffffffff1673ffffffffffffffffffffffffffffffffffffffff16815260200190815260200160002060020160010160008473ffffffffffffffffffffffffffffffffffffffff1673ffffffffffffffffffffffffffffffffffffffff16815260200190815260200160002060006101000a81548160ff02191690831515021790555060006122eb8261189e565b905061230160018261261690919063ffffffff16565b600260008473ffffffffffffffffffffffffffffffffffffffff1673ffffffffffffffffffffffffffffffffffffffff16815260200190815260200160002060020160000181905550505050565b60008060149054906101000a900460ff16905090565b6000600354905090565b6000612387600260045461275a90919063ffffffff16565b905090565b6000600454905090565b6000600554905090565b3360011515600160008373ffffffffffffffffffffffffffffffffffffffff1673ffffffffffffffffffffffffffffffffffffffff16815260200190815260200160002060009054906101000a900460ff16151514612467576040517f08c379a00000000000000000000000000000000000000000000000000000000081526004018080602001828103825260158152602001807f4e6f7420417574686f72697a65642043616c6c6572000000000000000000000081525060200191505060405180910390fd5b600060066000858152602001908152602001600020905060008090505b816001018054905081101561260f5760008260000160008460010184815481106124aa57fe5b9060005260206000200160009054906101000a900473ffffffffffffffffffffffffffffffffffffffff1673ffffffffffffffffffffffffffffffffffffffff1673ffffffffffffffffffffffffffffffffffffffff16815260200190815260200160002090506002600481111561251e57fe5b8160050160009054906101000a900460ff16600481111561253b57fe5b14156125da5761256e60646125608760ff1684600101546127a490919063ffffffff16565b61275a90919063ffffffff16565b81600101819055506000816001015411156125ae5760038160050160006101000a81548160ff021916908360048111156125a457fe5b02179055506125d5565b60048160050160006101000a81548160ff021916908360048111156125cf57fe5b02179055505b612601565b60048160050160006101000a81548160ff021916908360048111156125fb57fe5b02179055505b508080600101915050612484565b5050505050565b600080828401905083811015612694576040517f08c379a000000000000000000000000000000000000000000000000000000000815260040180806020018281038252601b8152602001807f536166654d6174683a206164646974696f6e206f766572666c6f77000000000081525060200191505060405180910390fd5b8091505092915050565b6000838383604051602001808473ffffffffffffffffffffffffffffffffffffffff1673ffffffffffffffffffffffffffffffffffffffff1660601b815260140183805190602001908083835b6020831061270e57805182526020820191506020810190506020830392506126eb565b6001836020036101000a03801982511681845116808217855250505050505090500182815260200193505050506040516020818303038152906040528051906020012090509392505050565b600061279c83836040518060400160405280601a81526020017f536166654d6174683a206469766973696f6e206279207a65726f00000000000081525061282a565b905092915050565b6000808314156127b75760009050612824565b60008284029050828482816127c857fe5b041461281f576040517f08c379a0000000000000000000000000000000000000000000000000000000008152600401808060200182810382526021815260200180612a086021913960400191505060405180910390fd5b809150505b92915050565b600080831182906128d6576040517f08c379a00000000000000000000000000000000000000000000000000000000081526004018080602001828103825283818151815260200191508051906020019080838360005b8381101561289b578082015181840152602081019050612880565b50505050905090810190601f1680156128c85780820380516001836020036101000a031916815260200191505b509250505060405180910390fd5b5060008385816128e257fe5b049050809150509392505050565b828054600181600116156101000203166002900490600052602060002090601f016020900481019282601f1061293157805160ff191683800117855561295f565b8280016001018555821561295f579182015b8281111561295e578251825591602001919060010190612943565b5b50905061296c91906129bd565b5090565b8280548282559060005260206000209081019282156129ac579160200282015b828111156129ab578251825591602001919060010190612990565b5b5090506129b991906129e2565b5090565b6129df91905b808211156129db5760008160009055506001016129c3565b5090565b90565b612a0491905b80821115612a005760008160009055506001016129e8565b5090565b9056fe536166654d6174683a206d756c7469706c69636174696f6e206f766572666c6f77436f6e74726163742069732063757272656e746c79206e6f74206f7065726174696f6e616ca265627a7a72315820e81fa54a490acfe3764e341783ba036865b40610a23dcbb4cd8234184eb69d6464736f6c63430005110032",
  "source": "pragma solidity ^0.5.0;\n\nimport \"../node_modules/openzeppelin-solidity/contracts/math/SafeMath.sol\";\n\ncontract FlightSuretyData {\n    using SafeMath for uint256;\n\n    /********************************************************************************************/\n    /*                                       DATA VARIABLES                                     */\n    /********************************************************************************************/\n\n    address private contractOwner;                                      // Account used to deploy contract\n    bool private operational = true;                                    // Blocks all state changes throughout the contract if false\n\n    mapping (address=>bool) public authorizedCallers;\n\n    struct Airline{\n        bool exists;\n        bool registered;\n        bool funded;\n        bytes32[] flightKeys;\n        Votes votes;\n        uint numberOfInsurance;\n    }\n    mapping(address => Airline) private airlines;\n    uint private airlinesCount = 0;\n    uint private registeredAirlinesCount = 0;\n    uint private fundedAirlinesCount = 0;\n    \n    struct Votes{\n        uint votersCount;\n        mapping(address => bool) voters;\n    }\n\n    struct Insurance {\n        address buyer;\n        uint value;\n        address airline;\n        string flightName;\n        uint256 departure;\n        InsuranceState state;\n    }\n\n    enum InsuranceState {\n        NotExist,\n        WaitingForBuyer,\n        Bought,\n        Passed,\n        Expired\n    }\n\n    struct FlightInsurance {\n        mapping(address => Insurance) insurances;\n        address[] keys;\n    }\n    mapping(bytes32 => FlightInsurance) private flightInsurances;\n\n    /********************************************************************************************/\n    /*                                       EVENT DEFINITIONS                                  */\n    /********************************************************************************************/\n\n    event AuthorizeCaller(address caller);\n    event AirlineExist(address airline, bool exist);\n    event AirlineRegistered(address airline, bool exist, bool registered);\n    event AirlineFunded(address airlineAddress, bool exist, bool registered, bool funded, uint fundedCount);\n    event InsuranceBought(bytes32 flightKey);\n\n    /**\n    * @dev Constructor\n    *      The deploying account becomes contractOwner\n    */\n    constructor\n                                (\n                                    address airlineAddress\n                                ) \n                                public \n    {\n        contractOwner = msg.sender;\n\n        airlines[airlineAddress] = Airline({\n                exists: true,\n                registered: true,\n                funded: false,\n                flightKeys: new bytes32[](0),\n                votes: Votes(0),\n                numberOfInsurance: 0\n            });\n\n        airlinesCount = airlinesCount.add(1);\n        registeredAirlinesCount = registeredAirlinesCount.add(1);\n        emit AirlineExist(airlineAddress, airlines[airlineAddress].exists);\n        emit AirlineRegistered(airlineAddress, airlines[airlineAddress].exists, airlines[airlineAddress].registered);\n    }\n\n    /********************************************************************************************/\n    /*                                       FUNCTION MODIFIERS                                 */\n    /********************************************************************************************/\n\n    // Modifiers help avoid duplication of code. They are typically used to validate something\n    // before a function is allowed to be executed.\n\n    /**\n    * @dev Modifier that requires the \"operational\" boolean variable to be \"true\"\n    *      This is used on all state changing functions to pause the contract in \n    *      the event there is an issue that needs to be fixed\n    */\n    modifier requireIsOperational() \n    {\n        require(operational, \"Contract is currently not operational\");\n        _;  // All modifiers require an \"_\" which indicates where the function body will be added\n    }\n\n    /**\n    * @dev Modifier that requires the \"ContractOwner\" account to be the function caller\n    */\n    modifier requireContractOwner()\n    {\n        require(msg.sender == contractOwner, \"Caller is not contract owner\");\n        _;\n    }\n\n     modifier requireAuthorizedCaller(address contractAddress)\n    {\n        require(authorizedCallers[contractAddress] == true, \"Not Authorized Caller\");\n        _;\n    }\n\n    modifier requireAirLineExist(address airlineAddress)\n    {\n        require(airlines[airlineAddress].exists, \"Airline does not exist\");\n        _;\n    }\n\n    modifier requireAirLineRegistered(address airlineAddress)\n    {\n        require(airlines[airlineAddress].exists, \"Airline does not exist\");\n        require(airlines[airlineAddress].registered, \"Airline is not registered\");\n        _;\n    }\n\n    /********************************************************************************************/\n    /*                                       UTILITY FUNCTIONS                                  */\n    /********************************************************************************************/\n\n    /**\n    * @dev Get operating status of contract\n    *\n    * @return A bool that is the current operating status\n    */\n    function isOperational()\n                        public\n                        view\n                        returns(bool)\n    {\n        return operational;\n    }\n\n    /**\n    * @dev Sets contract operations on/off\n    *\n    * When operational mode is disabled, all write transactions except for this one will fail\n    */    \n    function setOperatingStatus\n                            (\n                                bool mode\n                            )\n                            public\n                            requireContractOwner\n    {\n        operational = mode;\n    }\n\n    function authorizeCaller\n                        (\n                            address contractAddress\n                        )\n                        public\n                        requireContractOwner\n                        requireIsOperational\n    {\n        require(authorizedCallers[contractAddress] == false, \"already authorized\");\n        authorizedCallers[contractAddress] = true;\n        emit AuthorizeCaller(contractAddress);\n    }\n\n    function callerAuthorized\n                        (\n                            address contractAddress\n                        )\n                        public\n                        view\n                        returns (bool)\n    {\n        return authorizedCallers[contractAddress];\n    }\n\n    function getExistAirlinesCount()\n                                public\n                                view\n                                returns(uint)\n    {\n        return airlinesCount;\n    }\n\n    function getRegisteredAirlinesCount()\n                                    public\n                                    view\n                                    returns(uint)\n    {\n        return registeredAirlinesCount;\n    }\n\n    function getFundedAirlinesCount()\n                                public\n                                view\n                                returns(uint)\n    {\n        return fundedAirlinesCount;\n    }\n\n    function getAirlineVotesCount\n                            (\n                                address airlineAddress\n                            )\n                            public\n                            view\n                            returns(uint)\n    {\n        return airlines[airlineAddress].votes.votersCount;\n    }\n\n    function airlineExists\n                        (\n                            address airlineAddress\n                        )\n                        public\n                        view\n                        returns(bool)\n    {\n        return airlines[airlineAddress].exists;\n    }\n\n    function airlineRegistered\n                            (\n                                address airlineAddress\n                            )\n                            public\n                            view\n                            returns(bool)\n    {\n        return (airlines[airlineAddress].exists ? airlines[airlineAddress].registered : false);\n    }\n\n    function airlineFunded\n                        (\n                            address airlineAddress\n                        )\n                        public\n                        view\n                        returns(bool)\n    {\n        return airlines[airlineAddress].funded;\n    }\n\n    function getInsurance\n                    (\n                        address buyer,\n                        address airlineAddress,\n                        string memory flightName,\n                        uint256 departure\n                    )\n                    public\n                    view\n                    returns (\n                        uint value,\n                        InsuranceState state\n                    )\n    {\n        bytes32 flightKey = getFlightKey(airlineAddress, flightName, departure);\n        FlightInsurance storage flightInsurance = flightInsurances[flightKey];\n        Insurance storage insurance = flightInsurance.insurances[buyer];\n        return (insurance.value, insurance.state);\n    }\n\n\n    /********************************************************************************************/\n    /*                                     SMART CONTRACT FUNCTIONS                             */\n    /********************************************************************************************/\n\n    /**\n    * @dev Add an airline to the registration queue\n    *      Can only be called from FlightSuretyApp contract\n    *\n    */\n    function registerAirline\n                            (\n                                address airlineAddress,\n                                bool registered\n                            )\n                            public\n                            requireIsOperational\n    {\n        airlines[airlineAddress] = Airline({\n                exists: true,\n                registered: registered,\n                funded: false,\n                flightKeys: new bytes32[](0),\n                votes: Votes(0),\n                numberOfInsurance: 0\n            });\n\n        airlinesCount = airlinesCount.add(1);\n        if(registered == true) {\n            registeredAirlinesCount = registeredAirlinesCount.add(1);\n            emit AirlineRegistered(airlineAddress, airlines[airlineAddress].exists, airlines[airlineAddress].registered);\n        } else {\n            emit AirlineExist(airlineAddress, airlines[airlineAddress].exists);\n        }\n    }\n\n    function setAirlineRegistered\n                                (\n                                    address airlineAddress\n                                )\n                                requireIsOperational\n                                requireAirLineExist(airlineAddress)\n                                public\n    {\n        require(airlines[airlineAddress].registered == false, \"Airline is already registered\");\n        airlines[airlineAddress].registered = true;\n        registeredAirlinesCount = registeredAirlinesCount.add(1);\n        emit AirlineRegistered(airlineAddress, airlines[airlineAddress].exists, airlines[airlineAddress].registered);\n    }\n\n    function getMinimumRequiredVotingCount()\n                                        public\n                                        view\n                                        returns(uint)\n    {\n        return registeredAirlinesCount.div(2);\n    }\n\n    function voteForAirline\n                        (\n                            address votingAirlineAddress,\n                            address airlineAddress\n                        )\n                        public\n                        requireIsOperational\n    {\n        require(airlines[airlineAddress].votes.voters[votingAirlineAddress] == false, \"Airline already voted\");\n\n        airlines[airlineAddress].votes.voters[votingAirlineAddress] = true;\n        uint startingVotes = getAirlineVotesCount(airlineAddress);\n\n        airlines[airlineAddress].votes.votersCount = startingVotes.add(1);\n    }\n\n    function registerFlightKey\n                            (\n                                address airlineAddress,\n                                bytes32 flightKey\n                            )\n                            public\n                            requireAuthorizedCaller(msg.sender)\n    {\n        airlines[airlineAddress].flightKeys.push(flightKey);\n    }\n\n   /**\n    * @dev Buy insurance for a flight\n    *\n    */\n    function buyInsurance\n                    (\n                        address buyer,\n                        address airlineAddress,\n                        string memory flightName,\n                        uint256 departure\n                    )\n                    public\n                    payable\n    {\n        bytes32 flightKey = getFlightKey(airlineAddress, flightName, departure);\n        FlightInsurance storage flightInsurance = flightInsurances[flightKey];\n        flightInsurance.insurances[buyer] = Insurance(\n            {\n                buyer: buyer,\n                value: msg.value,\n                airline: airlineAddress,\n                flightName: flightName,\n                departure: departure,\n                state: InsuranceState.Bought\n            });\n        flightInsurance.keys.push(buyer);\n        emit InsuranceBought(flightKey);\n    }\n\n    // REQ: Insurance payouts are not sent directly to passengers wallet\n    /**\n     *  @dev Credits payouts to insurees\n    */\n    function creditInsurees\n                        (\n                            bytes32 flightKey,\n                            uint8 creditRate\n                        )\n                        public\n                        requireAuthorizedCaller(msg.sender)\n     {\n        FlightInsurance storage flightInsurance = flightInsurances[flightKey];\n\n        for (uint i = 0; i < flightInsurance.keys.length; i++) {\n            Insurance storage insurance = flightInsurance.insurances[flightInsurance.keys[i]];\n\n            if (insurance.state == InsuranceState.Bought) {\n                insurance.value = insurance.value.mul(creditRate).div(100);\n                if (insurance.value > 0)\n                    insurance.state = InsuranceState.Passed;\n                else\n                    insurance.state = InsuranceState.Expired;\n            } else {\n                insurance.state = InsuranceState.Expired;\n            }\n        }\n    }\n\n    // REQ: Passenger can withdraw any funds owed to them\n    // as a result of receiving credit for insurance payout\n    /**\n     *  @dev Transfers eligible payout funds to insuree\n     *\n    */\n    function pay\n                (\n                    bytes32 flightKey\n                )\n                external\n                payable\n    {\n        FlightInsurance storage flightInsurance = flightInsurances[flightKey];\n        Insurance storage insurance = flightInsurance.insurances[msg.sender];\n\n        require(insurance.state == InsuranceState.Passed, \"Insurance is not valid\");\n        require(address(this).balance > insurance.value, \"Try again later\");\n\n        uint value = insurance.value;\n        insurance.value = 0;\n        insurance.state = InsuranceState.Expired;\n        address payable insuree = address(uint160(insurance.buyer));\n        insuree.transfer(value);\n    }\n\n\n   /**\n    * @dev Initial funding for the insurance. Unless there are too many delayed flights\n    *      resulting in insurance payouts, the contract should be self-sustaining\n    *\n    */\n    function fund\n                (\n                    address airlineAddress\n                )\n                public\n                payable\n                requireIsOperational\n                requireAirLineRegistered(airlineAddress)\n    {\n        airlines[airlineAddress].funded = true;\n        fundedAirlinesCount = fundedAirlinesCount.add(1);\n        emit AirlineFunded(airlineAddress, airlines[airlineAddress].exists, airlines[airlineAddress].registered, airlines[airlineAddress].funded, fundedAirlinesCount);\n    }\n\n    function getFlightKey\n                        (\n                            address airline,\n                            string memory flight,\n                            uint256 timestamp\n                        )\n                        internal\n                        pure\n                        returns(bytes32)\n    {\n        return keccak256(abi.encodePacked(airline, flight, timestamp));\n    }\n\n    /**\n    * @dev Fallback function for funding smart contract.\n    *\n    */\n    function()\n            external\n            payable\n    {\n        fund(msg.sender);\n    }\n}\n\n",
  "sourcePath": "/Users/admin/Documents/dddd/e-bc/FlightSurety-Anil/contracts/FlightSuretyData.sol",
  "compiler": {
    "name": "solc",
    "version": "0.5.17+commit.d19bba13.Emscripten.clang"
  },
  "schemaVersion": "3.4.3",
  "updatedAt": "2021-09-19T14:24:52.023Z",
  "networkType": "ethereum",
  "devdoc": {
    "methods": {
      "buyInsurance(address,address,string,uint256)": {
        "details": "Buy insurance for a flight    "
      },
      "constructor": {
        "details": "Constructor     The deploying account becomes contractOwner"
      },
      "creditInsurees(bytes32,uint8)": {
        "details": "Credits payouts to insurees"
      },
      "fund(address)": {
        "details": "Initial funding for the insurance. Unless there are too many delayed flights     resulting in insurance payouts, the contract should be self-sustaining    "
      },
      "isOperational()": {
        "details": "Get operating status of contract",
        "return": "A bool that is the current operating status"
      },
      "pay(bytes32)": {
        "details": "Transfers eligible payout funds to insuree    "
      },
      "registerAirline(address,bool)": {
        "details": "Add an airline to the registration queue     Can only be called from FlightSuretyApp contract    "
      },
      "setOperatingStatus(bool)": {
        "details": "Sets contract operations on/off    * When operational mode is disabled, all write transactions except for this one will fail"
      }
    }
  },
  "userdoc": {
    "methods": {}
  }
}